{
  "contractName": "BancorManager",
  "abi": [
    {
      "inputs": [],
      "payable": false,
      "stateMutability": "nonpayable",
      "type": "constructor"
    },
    {
      "constant": false,
      "inputs": [
        {
          "name": "manager",
          "type": "address"
        }
      ],
      "name": "AddManager",
      "outputs": [
        {
          "name": "",
          "type": "bool"
        }
      ],
      "payable": false,
      "stateMutability": "nonpayable",
      "type": "function"
    },
    {
      "constant": false,
      "inputs": [
        {
          "name": "manager",
          "type": "address"
        }
      ],
      "name": "deleteManager",
      "outputs": [
        {
          "name": "",
          "type": "bool"
        }
      ],
      "payable": false,
      "stateMutability": "nonpayable",
      "type": "function"
    },
    {
      "constant": true,
      "inputs": [
        {
          "name": "manager",
          "type": "address"
        }
      ],
      "name": "isManaged",
      "outputs": [
        {
          "name": "",
          "type": "bool"
        }
      ],
      "payable": false,
      "stateMutability": "view",
      "type": "function"
    },
    {
      "constant": false,
      "inputs": [
        {
          "name": "addrConverter",
          "type": "address"
        },
        {
          "name": "addrSmartToken",
          "type": "address"
        },
        {
          "name": "addrEthToken",
          "type": "address"
        }
      ],
      "name": "addBancorAddress",
      "outputs": [],
      "payable": false,
      "stateMutability": "nonpayable",
      "type": "function"
    },
    {
      "constant": false,
      "inputs": [],
      "name": "getBancorAddresses",
      "outputs": [
        {
          "name": "",
          "type": "address[]"
        },
        {
          "name": "",
          "type": "uint256"
        }
      ],
      "payable": false,
      "stateMutability": "nonpayable",
      "type": "function"
    },
    {
      "constant": false,
      "inputs": [
        {
          "name": "addrSmartToken",
          "type": "address"
        }
      ],
      "name": "getConverterAddress",
      "outputs": [
        {
          "name": "",
          "type": "address"
        }
      ],
      "payable": false,
      "stateMutability": "nonpayable",
      "type": "function"
    },
    {
      "constant": false,
      "inputs": [
        {
          "name": "addrSmartToken",
          "type": "address"
        }
      ],
      "name": "getEthTokenAddress",
      "outputs": [
        {
          "name": "",
          "type": "address"
        }
      ],
      "payable": false,
      "stateMutability": "nonpayable",
      "type": "function"
    }
  ],
  "bytecode": "0x608060405234801561001057600080fd5b5060008054600160a060020a0319163390811782558152600460205260408120805460ff191660011790556002556105dc8061004d6000396000f3006080604052600436106100825763ffffffff7c0100000000000000000000000000000000000000000000000000000000600035041663220bb14e81146100875780633630096a146100c95780635c01edb5146100f75780637e9122c11461014e5780638f9093ce1461018a57806396799760146101b8578063db643643146101e6575b600080fd5b34801561009357600080fd5b506100b573ffffffffffffffffffffffffffffffffffffffff60043516610256565b604080519115158252519081900360200190f35b3480156100d557600080fd5b506100b573ffffffffffffffffffffffffffffffffffffffff60043516610285565b34801561010357600080fd5b5061012573ffffffffffffffffffffffffffffffffffffffff60043516610334565b6040805173ffffffffffffffffffffffffffffffffffffffff9092168252519081900360200190f35b34801561015a57600080fd5b5061018873ffffffffffffffffffffffffffffffffffffffff6004358116906024358116906044351661037e565b005b34801561019657600080fd5b5061012573ffffffffffffffffffffffffffffffffffffffff6004351661047c565b3480156101c457600080fd5b506100b573ffffffffffffffffffffffffffffffffffffffff600435166104c9565b3480156101f257600080fd5b506101fb610518565b6040518080602001838152602001828103825284818151815260200191508051906020019060200280838360005b83811015610241578181015183820152602001610229565b50505050905001935050505060405180910390f35b73ffffffffffffffffffffffffffffffffffffffff811660009081526004602052604090205460ff165b919050565b6000805473ffffffffffffffffffffffffffffffffffffffff1633146102aa57600080fd5b73ffffffffffffffffffffffffffffffffffffffff821660009081526004602052604090205460ff16156102e057506000610280565b5073ffffffffffffffffffffffffffffffffffffffff16600090815260046020526040902080547fffffffffffffffffffffffffffffffffffffffffffffffffffffffffffffff0016600190811790915590565b3360009081526004602052604081205460ff16151561035257600080fd5b5073ffffffffffffffffffffffffffffffffffffffff9081166000908152600360205260409020541690565b60005473ffffffffffffffffffffffffffffffffffffffff1633146103a257600080fd5b6040805160608101825273ffffffffffffffffffffffffffffffffffffffff9485168152928416602080850182815293861685840190815260008381526003909252928120945185549087167fffffffffffffffffffffffff00000000000000000000000000000000000000009182161786559351600180870180549289169287169290921790915592516002958601805491909716908516179095558154808301808455929095527fb10e2d527612073b26eecdfd717e6a320cf44b4afac2b0732d9fcbe2b7fa0cf69094018054909216909317905555565b3360009081526004602052604081205460ff16151561049a57600080fd5b5073ffffffffffffffffffffffffffffffffffffffff9081166000908152600360205260409020600201541690565b73ffffffffffffffffffffffffffffffffffffffff16600090815260046020526040902080547fffffffffffffffffffffffffffffffffffffffffffffffffffffffffffffff00169055600190565b336000908152600460205260408120546060919060ff16151561053a57600080fd5b6001600254818054806020026020016040519081016040528092919081815260200182805480156105a157602002820191906000526020600020905b815473ffffffffffffffffffffffffffffffffffffffff168152600190910190602001808311610576575b505050505091509150915090915600a165627a7a723058209654afab31d823781ea9b78c73ee52b4e210cdfb4f3c06f90dba0d5c494d76090029",
  "source": "pragma solidity ^0.4.21;\r\n\r\ncontract BancorManager {\r\n    address owner;\r\n    address[] addressList;\r\n    uint256 length;\r\n\r\n    struct BancorAddress {\r\n        address bancorConverter;\r\n        address smartToken;\r\n        address ethToken;\r\n    }\r\n\r\n    mapping(address=>BancorAddress) addresses;\r\n    mapping(address=>bool) managers;\r\n\r\n    function BancorManager() public {\r\n        owner = msg.sender;\r\n        managers[msg.sender] = true;\r\n        length = 0;\r\n    }\r\n\r\n    function AddManager(address manager) public returns (bool){\r\n        require(msg.sender == owner);\r\n\r\n        if (managers[manager])\r\n        {\r\n            return false;\r\n        }\r\n\r\n        managers[manager] = true;\r\n        return true;\r\n    }\r\n\r\n    function deleteManager(address manager) public returns (bool){\r\n        managers[manager] = false;\r\n        return true;\r\n    }\r\n\r\n    function isManaged(address manager) public view returns (bool) {\r\n        return managers[manager];\r\n    }\r\n\r\n    function addBancorAddress(address addrConverter, address addrSmartToken, address addrEthToken) public {\r\n        require(msg.sender == owner);\r\n\r\n        addresses[addrSmartToken] = BancorAddress(addrConverter, addrSmartToken, addrEthToken);\r\n        length = addressList.push(addrSmartToken);\r\n    }\r\n\r\n    function getBancorAddresses() public returns (address[], uint256){\r\n        require(managers[msg.sender]);\r\n\r\n        return (addressList, length);\r\n    }\r\n\r\n    function getConverterAddress(address addrSmartToken) public returns (address){\r\n        require(managers[msg.sender]);\r\n\r\n        return addresses[addrSmartToken].bancorConverter;\r\n    }\r\n\r\n    function getEthTokenAddress(address addrSmartToken) public returns (address){\r\n        require(managers[msg.sender]);\r\n\r\n        return addresses[addrSmartToken].ethToken;\r\n    }\r\n}\r\n",
  "sourcePath": "D:\\Workshop\\NodeSpace\\bancor_ex\\contracts\\BancorManager.sol",
  "compiler": {
    "name": "solc",
    "version": "0.4.24+commit.e67f0147.Emscripten.clang"
  },
  "schemaVersion": "2.0.1",
  "updatedAt": "2019-01-29T09:38:41.111Z"
}